{
  "contractName": "Insurance",
  "abi": [
    {
      "inputs": [],
      "stateMutability": "nonpayable",
      "type": "constructor"
    },
    {
      "inputs": [
        {
          "internalType": "address",
          "name": "",
          "type": "address"
        }
      ],
      "name": "CheckBeforeStatus",
      "outputs": [
        {
          "internalType": "bool",
          "name": "",
          "type": "bool"
        }
      ],
      "stateMutability": "view",
      "type": "function",
      "constant": true
    },
    {
      "inputs": [],
      "name": "MinerIndexNotApproved",
      "outputs": [
        {
          "internalType": "uint256",
          "name": "",
          "type": "uint256"
        }
      ],
      "stateMutability": "view",
      "type": "function",
      "constant": true
    },
    {
      "inputs": [
        {
          "internalType": "uint256",
          "name": "",
          "type": "uint256"
        }
      ],
      "name": "claimUsers",
      "outputs": [
        {
          "internalType": "address",
          "name": "user",
          "type": "address"
        },
        {
          "internalType": "uint256",
          "name": "countminerP",
          "type": "uint256"
        },
        {
          "internalType": "uint256",
          "name": "countminerN",
          "type": "uint256"
        },
        {
          "internalType": "string",
          "name": "description",
          "type": "string"
        },
        {
          "internalType": "uint256",
          "name": "idx",
          "type": "uint256"
        },
        {
          "internalType": "uint256",
          "name": "totalMin",
          "type": "uint256"
        },
        {
          "internalType": "string",
          "name": "res",
          "type": "string"
        }
      ],
      "stateMutability": "view",
      "type": "function",
      "constant": true
    },
    {
      "inputs": [],
      "name": "company",
      "outputs": [
        {
          "internalType": "address",
          "name": "",
          "type": "address"
        }
      ],
      "stateMutability": "view",
      "type": "function",
      "constant": true
    },
    {
      "inputs": [
        {
          "internalType": "address",
          "name": "",
          "type": "address"
        }
      ],
      "name": "isminer",
      "outputs": [
        {
          "internalType": "bool",
          "name": "",
          "type": "bool"
        }
      ],
      "stateMutability": "view",
      "type": "function",
      "constant": true
    },
    {
      "inputs": [],
      "name": "minerIndexApproved",
      "outputs": [
        {
          "internalType": "uint256",
          "name": "",
          "type": "uint256"
        }
      ],
      "stateMutability": "view",
      "type": "function",
      "constant": true
    },
    {
      "inputs": [
        {
          "internalType": "address",
          "name": "",
          "type": "address"
        }
      ],
      "name": "minerList",
      "outputs": [
        {
          "internalType": "uint256",
          "name": "lastAproval",
          "type": "uint256"
        },
        {
          "internalType": "uint256",
          "name": "totalPositive",
          "type": "uint256"
        },
        {
          "internalType": "uint256",
          "name": "totalNegative",
          "type": "uint256"
        },
        {
          "internalType": "uint256",
          "name": "dueAmount",
          "type": "uint256"
        }
      ],
      "stateMutability": "view",
      "type": "function",
      "constant": true
    },
    {
      "inputs": [
        {
          "internalType": "uint256",
          "name": "",
          "type": "uint256"
        }
      ],
      "name": "minerPayment",
      "outputs": [
        {
          "internalType": "uint256",
          "name": "amount",
          "type": "uint256"
        },
        {
          "internalType": "address",
          "name": "miner",
          "type": "address"
        }
      ],
      "stateMutability": "view",
      "type": "function",
      "constant": true
    },
    {
      "inputs": [],
      "name": "minimumCriteria",
      "outputs": [
        {
          "internalType": "uint256",
          "name": "",
          "type": "uint256"
        }
      ],
      "stateMutability": "view",
      "type": "function",
      "constant": true
    },
    {
      "inputs": [],
      "name": "minimumRequirnmentTime",
      "outputs": [
        {
          "internalType": "uint256",
          "name": "",
          "type": "uint256"
        }
      ],
      "stateMutability": "view",
      "type": "function",
      "constant": true
    },
    {
      "inputs": [],
      "name": "totalApproveUsers",
      "outputs": [
        {
          "internalType": "uint256",
          "name": "",
          "type": "uint256"
        }
      ],
      "stateMutability": "view",
      "type": "function",
      "constant": true
    },
    {
      "inputs": [],
      "name": "totalClaimUsers",
      "outputs": [
        {
          "internalType": "uint256",
          "name": "",
          "type": "uint256"
        }
      ],
      "stateMutability": "view",
      "type": "function",
      "constant": true
    },
    {
      "inputs": [],
      "name": "totalMiner",
      "outputs": [
        {
          "internalType": "uint256",
          "name": "",
          "type": "uint256"
        }
      ],
      "stateMutability": "view",
      "type": "function",
      "constant": true
    },
    {
      "inputs": [
        {
          "internalType": "address",
          "name": "",
          "type": "address"
        }
      ],
      "name": "userList",
      "outputs": [
        {
          "internalType": "uint256",
          "name": "totalAmount",
          "type": "uint256"
        },
        {
          "internalType": "uint256",
          "name": "policy",
          "type": "uint256"
        },
        {
          "internalType": "uint256",
          "name": "lastTimePayment",
          "type": "uint256"
        },
        {
          "internalType": "uint256",
          "name": "registrationDate",
          "type": "uint256"
        },
        {
          "internalType": "uint256",
          "name": "dueAmount",
          "type": "uint256"
        },
        {
          "internalType": "uint256",
          "name": "lastTimeClaim",
          "type": "uint256"
        },
        {
          "internalType": "uint256",
          "name": "lastClaimNumber",
          "type": "uint256"
        },
        {
          "internalType": "uint256",
          "name": "blockTimestamp",
          "type": "uint256"
        }
      ],
      "stateMutability": "view",
      "type": "function",
      "constant": true
    },
    {
      "inputs": [
        {
          "internalType": "address",
          "name": "",
          "type": "address"
        }
      ],
      "name": "userList1",
      "outputs": [
        {
          "internalType": "bool",
          "name": "",
          "type": "bool"
        }
      ],
      "stateMutability": "view",
      "type": "function",
      "constant": true
    },
    {
      "inputs": [],
      "name": "userLastClaimNumber",
      "outputs": [
        {
          "internalType": "uint256",
          "name": "",
          "type": "uint256"
        }
      ],
      "stateMutability": "view",
      "type": "function",
      "constant": true
    },
    {
      "inputs": [],
      "name": "addUser",
      "outputs": [],
      "stateMutability": "payable",
      "type": "function",
      "payable": true
    },
    {
      "inputs": [],
      "name": "subsequentPayment",
      "outputs": [],
      "stateMutability": "payable",
      "type": "function",
      "payable": true
    },
    {
      "inputs": [],
      "name": "get",
      "outputs": [],
      "stateMutability": "nonpayable",
      "type": "function"
    },
    {
      "inputs": [],
      "name": "dueAmountUser",
      "outputs": [
        {
          "internalType": "uint256",
          "name": "",
          "type": "uint256"
        }
      ],
      "stateMutability": "view",
      "type": "function",
      "constant": true
    },
    {
      "inputs": [],
      "name": "getUserPolicy",
      "outputs": [
        {
          "internalType": "uint256",
          "name": "",
          "type": "uint256"
        }
      ],
      "stateMutability": "nonpayable",
      "type": "function"
    },
    {
      "inputs": [
        {
          "internalType": "address",
          "name": "_miner",
          "type": "address"
        }
      ],
      "name": "addMiner",
      "outputs": [],
      "stateMutability": "nonpayable",
      "type": "function"
    },
    {
      "inputs": [
        {
          "internalType": "address",
          "name": "_miner",
          "type": "address"
        }
      ],
      "name": "removeMiner",
      "outputs": [],
      "stateMutability": "nonpayable",
      "type": "function"
    },
    {
      "inputs": [
        {
          "internalType": "string",
          "name": "_desc",
          "type": "string"
        }
      ],
      "name": "insuranceClaim",
      "outputs": [],
      "stateMutability": "nonpayable",
      "type": "function"
    },
    {
      "inputs": [],
      "name": "minerLastApprovalStatus",
      "outputs": [],
      "stateMutability": "payable",
      "type": "function",
      "payable": true
    },
    {
      "inputs": [],
      "name": "minerCheckUserDetailForApproval",
      "outputs": [
        {
          "internalType": "string",
          "name": "",
          "type": "string"
        }
      ],
      "stateMutability": "view",
      "type": "function",
      "constant": true
    },
    {
      "inputs": [
        {
          "internalType": "bool",
          "name": "c",
          "type": "bool"
        }
      ],
      "name": "minerAprroval",
      "outputs": [],
      "stateMutability": "payable",
      "type": "function",
      "payable": true
    },
    {
      "inputs": [],
      "name": "claimPaymentApproval",
      "outputs": [],
      "stateMutability": "payable",
      "type": "function",
      "payable": true
    }
  ],
  "bytecode": "0x608060405234801561001057600080fd5b5033600760006101000a81548173ffffffffffffffffffffffffffffffffffffffff021916908373ffffffffffffffffffffffffffffffffffffffff160217905550600560098190555060006008819055506005600a819055506000600b819055506000600c819055506000600d819055506000600e81905550613b49806100996000396000f3fe6080604052600436106101b75760003560e01c80636904c94d116100ec578063ade58ee61161008a578063d24d9fc311610064578063d24d9fc3146105b7578063e67c7c3d146105f4578063ed78515a1461061f578063f3982e5e14610629576101b7565b8063ade58ee614610536578063b6f1f73214610561578063be347f611461058c576101b7565b80637d8026f4116100c65780637d8026f4146104995780637f9db107146104c457806389e38eb1146104ef578063a47e314c1461050b576101b7565b80636904c94d1461042c5780636d4ce63c14610457578063727eb6c51461046e576101b7565b8063239f29c411610159578063325ae89c11610133578063325ae89c1461037957806341671ca1146103b7578063455c928c146103f757806349a0613714610401576101b7565b8063239f29c41461033a57806326286b67146103445780632cb72bca1461036f576101b7565b8063102425901161019557806310242590146102535780631594629e1461027c5780631ad43daf146102b95780631b4e7bd2146102f6576101b7565b806303664291146101bc5780630badd626146101e55780630d8d7a6614610210575b600080fd5b3480156101c857600080fd5b506101e360048036038101906101de91906128b7565b610652565b005b3480156101f157600080fd5b506101fa610aaa565b6040516102079190612919565b60405180910390f35b34801561021c57600080fd5b5061023760048036038101906102329190612960565b610ab0565b60405161024a9796959493929190612a56565b60405180910390f35b34801561025f57600080fd5b5061027a60048036038101906102759190612aff565b610c22565b005b34801561028857600080fd5b506102a3600480360381019061029e9190612aff565b610dbe565b6040516102b09190612b47565b60405180910390f35b3480156102c557600080fd5b506102e060048036038101906102db9190612aff565b610dde565b6040516102ed9190612b47565b60405180910390f35b34801561030257600080fd5b5061031d60048036038101906103189190612aff565b610dfe565b604051610331989796959493929190612b62565b60405180910390f35b610342610e46565b005b34801561035057600080fd5b506103596110e0565b6040516103669190612be0565b60405180910390f35b6103776112ae565b005b34801561038557600080fd5b506103a0600480360381019061039b9190612960565b61171a565b6040516103ae929190612c02565b60405180910390f35b3480156103c357600080fd5b506103de60048036038101906103d99190612aff565b61175e565b6040516103ee9493929190612c2b565b60405180910390f35b6103ff61178e565b005b34801561040d57600080fd5b50610416611ab3565b6040516104239190612919565b60405180910390f35b34801561043857600080fd5b50610441611bad565b60405161044e9190612c70565b60405180910390f35b34801561046357600080fd5b5061046c611bd3565b005b34801561047a57600080fd5b50610483611cb4565b6040516104909190612919565b60405180910390f35b3480156104a557600080fd5b506104ae611cba565b6040516104bb9190612919565b60405180910390f35b3480156104d057600080fd5b506104d9611cc0565b6040516104e69190612919565b60405180910390f35b61050960048036038101906105049190612cb7565b611cc6565b005b34801561051757600080fd5b50610520611fe1565b60405161052d9190612919565b60405180910390f35b34801561054257600080fd5b5061054b6120e3565b6040516105589190612919565b60405180910390f35b34801561056d57600080fd5b506105766120e9565b6040516105839190612919565b60405180910390f35b34801561059857600080fd5b506105a16120ef565b6040516105ae9190612919565b60405180910390f35b3480156105c357600080fd5b506105de60048036038101906105d99190612aff565b6120f5565b6040516105eb9190612b47565b60405180910390f35b34801561060057600080fd5b50610609612115565b6040516106169190612919565b60405180910390f35b61062761223d565b005b34801561063557600080fd5b50610650600480360381019061064b9190612aff565b612383565b005b6000600460003373ffffffffffffffffffffffffffffffffffffffff1673ffffffffffffffffffffffffffffffffffffffff16815260200190815260200160002060009054906101000a900460ff169050806106e3576040517f08c379a00000000000000000000000000000000000000000000000000000000081526004016106da90612d56565b60405180910390fd5b6000600360003373ffffffffffffffffffffffffffffffffffffffff1673ffffffffffffffffffffffffffffffffffffffff1681526020019081526020016000209050600060b482600501544261073a9190612da5565b6107449190612e08565b9050600281101561078a576040517f08c379a000000000000000000000000000000000000000000000000000000000815260040161078190612e85565b60405180910390fd5b600060b483600201544261079e9190612da5565b6107a89190612e08565b146107e8576040517f08c379a00000000000000000000000000000000000000000000000000000000081526004016107df90612ef1565b60405180910390fd5b6000600660003373ffffffffffffffffffffffffffffffffffffffff1673ffffffffffffffffffffffffffffffffffffffff16815260200190815260200160002060009054906101000a900460ff1690506000151581151514610880576040517f08c379a000000000000000000000000000000000000000000000000000000000815260040161087790612f5d565b60405180910390fd5b600060056000600b5481526020019081526020016000209050338160000160006101000a81548173ffffffffffffffffffffffffffffffffffffffff021916908373ffffffffffffffffffffffffffffffffffffffff16021790555060008160010181905550600081600201819055508581600301908051906020019061090892919061258a565b5060085467ffffffffffffffff8111156109255761092461278c565b5b6040519080825280602002602001820160405280156109535781602001602082028036833780820191505090505b5081600401908051906020019061096b929190612610565b5060085467ffffffffffffffff8111156109885761098761278c565b5b6040519080825280602002602001820160405280156109b65781602001602082028036833780820191505090505b508160050190805190602001906109ce92919061269a565b50600081600601819055506040518060400160405280600781526020017f77616974696e6700000000000000000000000000000000000000000000000000815250816008019080519060200190610a2692919061258a565b506008548160070181905550600b6000815480929190610a4590612f7d565b91905055506001600660003373ffffffffffffffffffffffffffffffffffffffff1673ffffffffffffffffffffffffffffffffffffffff16815260200190815260200160002060006101000a81548160ff021916908315150217905550505050505050565b600d5481565b60056020528060005260406000206000915090508060000160009054906101000a900473ffffffffffffffffffffffffffffffffffffffff1690806001015490806002015490806003018054610b0590612ff4565b80601f0160208091040260200160405190810160405280929190818152602001828054610b3190612ff4565b8015610b7e5780601f10610b5357610100808354040283529160200191610b7e565b820191906000526020600020905b815481529060010190602001808311610b6157829003601f168201915b505050505090806006015490806007015490806008018054610b9f90612ff4565b80601f0160208091040260200160405190810160405280929190818152602001828054610bcb90612ff4565b8015610c185780601f10610bed57610100808354040283529160200191610c18565b820191906000526020600020905b815481529060010190602001808311610bfb57829003601f168201915b5050505050905087565b600760009054906101000a900473ffffffffffffffffffffffffffffffffffffffff1673ffffffffffffffffffffffffffffffffffffffff163373ffffffffffffffffffffffffffffffffffffffff1614610cb2576040517f08c379a0000000000000000000000000000000000000000000000000000000008152600401610ca990613097565b60405180910390fd5b6000600160008373ffffffffffffffffffffffffffffffffffffffff1673ffffffffffffffffffffffffffffffffffffffff16815260200190815260200160002060009054906101000a900460ff1690506001151581151514610d4a576040517f08c379a0000000000000000000000000000000000000000000000000000000008152600401610d4190613103565b60405180910390fd5b6000600160008473ffffffffffffffffffffffffffffffffffffffff1673ffffffffffffffffffffffffffffffffffffffff16815260200190815260200160002060006101000a81548160ff02191690831515021790555060086000815480929190610db590613123565b91905055505050565b60016020528060005260406000206000915054906101000a900460ff1681565b60046020528060005260406000206000915054906101000a900460ff1681565b60036020528060005260406000206000915090508060000154908060010154908060020154908060030154908060040154908060050154908060060154908060070154905088565b6000600460003373ffffffffffffffffffffffffffffffffffffffff1673ffffffffffffffffffffffffffffffffffffffff16815260200190815260200160002060009054906101000a900460ff16905080610ed7576040517f08c379a0000000000000000000000000000000000000000000000000000000008152600401610ece90613198565b60405180910390fd5b6000600360003373ffffffffffffffffffffffffffffffffffffffff1673ffffffffffffffffffffffffffffffffffffffff1681526020019081526020016000209050600060b4826002015442610f2e9190612da5565b610f389190612e08565b90506001811015610f7e576040517f08c379a0000000000000000000000000000000000000000000000000000000008152600401610f759061322a565b60405180910390fd5b808260010154610f8e919061324a565b341015610fd0576040517f08c379a0000000000000000000000000000000000000000000000000000000008152600401610fc790613316565b60405180910390fd5b6000600760009054906101000a900473ffffffffffffffffffffffffffffffffffffffff1673ffffffffffffffffffffffffffffffffffffffff163460405161101890613367565b60006040518083038185875af1925050503d8060008114611055576040519150601f19603f3d011682016040523d82523d6000602084013e61105a565b606091505b505090508061109e576040517f08c379a0000000000000000000000000000000000000000000000000000000008152600401611095906133c8565b60405180910390fd5b60008360010154346110b09190612e08565b90508060b46110bf919061324a565b8460020160008282546110d291906133e8565b925050819055505050505050565b60606000600160003373ffffffffffffffffffffffffffffffffffffffff1673ffffffffffffffffffffffffffffffffffffffff16815260200190815260200160002060009054906101000a900460ff16905080611173576040517f08c379a000000000000000000000000000000000000000000000000000000000815260040161116a9061348a565b60405180910390fd5b60008060003373ffffffffffffffffffffffffffffffffffffffff1673ffffffffffffffffffffffffffffffffffffffff1681526020019081526020016000209050600c54816000015410156111fe576040517f08c379a00000000000000000000000000000000000000000000000000000000081526004016111f5906134f6565b60405180910390fd5b60006005600083600001548152602001908152602001600020905080600301805461122890612ff4565b80601f016020809104026020016040519081016040528092919081815260200182805461125490612ff4565b80156112a15780601f10611276576101008083540402835291602001916112a1565b820191906000526020600020905b81548152906001019060200180831161128457829003601f168201915b5050505050935050505090565b600760009054906101000a900473ffffffffffffffffffffffffffffffffffffffff1673ffffffffffffffffffffffffffffffffffffffff163373ffffffffffffffffffffffffffffffffffffffff161461133e576040517f08c379a000000000000000000000000000000000000000000000000000000000815260040161133590613097565b60405180910390fd5b600c54600b5411611384576040517f08c379a000000000000000000000000000000000000000000000000000000000815260040161137b90613562565b60405180910390fd5b600060056000600c54815260200190815260200160002090506000600360008360000160009054906101000a900473ffffffffffffffffffffffffffffffffffffffff1673ffffffffffffffffffffffffffffffffffffffff1673ffffffffffffffffffffffffffffffffffffffff1681526020019081526020016000209050600282600701546114159190612e08565b8260020154836001015461142991906133e8565b101561146a576040517f08c379a0000000000000000000000000000000000000000000000000000000008152600401611461906135ce565b60405180910390fd5b6002826007015461147b9190612e08565b826001015411156116475760008260000160009054906101000a900473ffffffffffffffffffffffffffffffffffffffff1673ffffffffffffffffffffffffffffffffffffffff16346040516114d090613367565b60006040518083038185875af1925050503d806000811461150d576040519150601f19603f3d011682016040523d82523d6000602084013e611512565b606091505b5050905080611556576040517f08c379a000000000000000000000000000000000000000000000000000000000815260040161154d9061363a565b60405180910390fd5b6040518060400160405280601a81526020017f417070726f76656420636865636b20796f752062616c616e63650000000000008152508360080190805190602001906115a392919061258a565b504282600501819055506000600660008560000160009054906101000a900473ffffffffffffffffffffffffffffffffffffffff1673ffffffffffffffffffffffffffffffffffffffff1673ffffffffffffffffffffffffffffffffffffffff16815260200190815260200160002060006101000a81548160ff021916908315150217905550600c600081548092919061163c90612f7d565b919050555050611716565b4281600501819055506040518060600160405280602c8152602001613ae8602c913982600801908051906020019061168092919061258a565b506000600660008460000160009054906101000a900473ffffffffffffffffffffffffffffffffffffffff1673ffffffffffffffffffffffffffffffffffffffff1673ffffffffffffffffffffffffffffffffffffffff16815260200190815260200160002060006101000a81548160ff021916908315150217905550600c600081548092919061171090612f7d565b91905055505b5050565b60026020528060005260406000206000915090508060000154908060010160009054906101000a900473ffffffffffffffffffffffffffffffffffffffff16905082565b60006020528060005260406000206000915090508060000154908060010154908060020154908060030154905084565b600760009054906101000a900473ffffffffffffffffffffffffffffffffffffffff1673ffffffffffffffffffffffffffffffffffffffff163373ffffffffffffffffffffffffffffffffffffffff160361181e576040517f08c379a0000000000000000000000000000000000000000000000000000000008152600401611815906136a6565b60405180910390fd5b600954341015611863576040517f08c379a000000000000000000000000000000000000000000000000000000000815260040161185a90613738565b60405180910390fd5b6000600460003373ffffffffffffffffffffffffffffffffffffffff1673ffffffffffffffffffffffffffffffffffffffff16815260200190815260200160002060009054906101000a900460ff16905060001515811515146118fb576040517f08c379a00000000000000000000000000000000000000000000000000000000081526004016118f2906137a4565b60405180910390fd5b6000600360003373ffffffffffffffffffffffffffffffffffffffff1673ffffffffffffffffffffffffffffffffffffffff16815260200190815260200160002090506000600760009054906101000a900473ffffffffffffffffffffffffffffffffffffffff1673ffffffffffffffffffffffffffffffffffffffff163460405161198690613367565b60006040518083038185875af1925050503d80600081146119c3576040519150601f19603f3d011682016040523d82523d6000602084013e6119c8565b606091505b5050905080611a0c576040517f08c379a0000000000000000000000000000000000000000000000000000000008152600401611a0390613810565b60405180910390fd5b34826001018190555034826000018190555042826002018190555042826003018190555060008260040181905550428260050181905550428260070181905550600082600601819055506001600460003373ffffffffffffffffffffffffffffffffffffffff1673ffffffffffffffffffffffffffffffffffffffff16815260200190815260200160002060006101000a81548160ff021916908315150217905550505050565b600080600460003373ffffffffffffffffffffffffffffffffffffffff1673ffffffffffffffffffffffffffffffffffffffff16815260200190815260200160002060009054906101000a900460ff16905080611b45576040517f08c379a0000000000000000000000000000000000000000000000000000000008152600401611b3c9061387c565b60405180910390fd5b6000600360003373ffffffffffffffffffffffffffffffffffffffff1673ffffffffffffffffffffffffffffffffffffffff16815260200190815260200160002090506000670de0b6b3a76400008260010154611ba29190612e08565b905080935050505090565b600760009054906101000a900473ffffffffffffffffffffffffffffffffffffffff1681565b6000600460003373ffffffffffffffffffffffffffffffffffffffff1673ffffffffffffffffffffffffffffffffffffffff16815260200190815260200160002060009054906101000a900460ff16905080611c64576040517f08c379a0000000000000000000000000000000000000000000000000000000008152600401611c5b9061387c565b60405180910390fd5b6000600360003373ffffffffffffffffffffffffffffffffffffffff1673ffffffffffffffffffffffffffffffffffffffff16815260200190815260200160002090504281600701819055505050565b600e5481565b600c5481565b600a5481565b6000600160003373ffffffffffffffffffffffffffffffffffffffff1673ffffffffffffffffffffffffffffffffffffffff16815260200190815260200160002060009054906101000a900460ff16905080611d57576040517f08c379a0000000000000000000000000000000000000000000000000000000008152600401611d4e9061348a565b60405180910390fd5b60008060003373ffffffffffffffffffffffffffffffffffffffff1673ffffffffffffffffffffffffffffffffffffffff1681526020019081526020016000209050600c5481600001541015611de2576040517f08c379a0000000000000000000000000000000000000000000000000000000008152600401611dd9906138e8565b60405180910390fd5b600060056000836000015481526020019081526020016000209050816000016000815480929190611e1290612f7d565b91905055508315611efe57806001016000815480929190611e3290612f7d565b91905055503381600401826006015481548110611e5257611e51613908565b5b9060005260206000200160006101000a81548173ffffffffffffffffffffffffffffffffffffffff021916908373ffffffffffffffffffffffffffffffffffffffff160217905550600181600501826006015481548110611eb657611eb5613908565b5b90600052602060002090602091828204019190066101000a81548160ff021916908315150217905550806006016000815480929190611ef490612f7d565b9190505550611fdb565b806002016000815480929190611f1390612f7d565b91905055503381600401826006015481548110611f3357611f32613908565b5b9060005260206000200160006101000a81548173ffffffffffffffffffffffffffffffffffffffff021916908373ffffffffffffffffffffffffffffffffffffffff160217905550600081600501826006015481548110611f9757611f96613908565b5b90600052602060002090602091828204019190066101000a81548160ff021916908315150217905550806006016000815480929190611fd590612f7d565b91905055505b50505050565b600080600460003373ffffffffffffffffffffffffffffffffffffffff1673ffffffffffffffffffffffffffffffffffffffff16815260200190815260200160002060009054906101000a900460ff16905080612073576040517f08c379a000000000000000000000000000000000000000000000000000000000815260040161206a9061387c565b60405180910390fd5b6000600360003373ffffffffffffffffffffffffffffffffffffffff1673ffffffffffffffffffffffffffffffffffffffff1681526020019081526020016000209050600060b4826002015483600701546120ce9190612da5565b6120d89190612e08565b905080935050505090565b60085481565b60095481565b600b5481565b60066020528060005260406000206000915054906101000a900460ff1681565b600080600460003373ffffffffffffffffffffffffffffffffffffffff1673ffffffffffffffffffffffffffffffffffffffff16815260200190815260200160002060009054906101000a900460ff169050806121a7576040517f08c379a000000000000000000000000000000000000000000000000000000000815260040161219e90613983565b60405180910390fd5b6000600360003373ffffffffffffffffffffffffffffffffffffffff1673ffffffffffffffffffffffffffffffffffffffff16815260200190815260200160002090506000816006015411612231576040517f08c379a0000000000000000000000000000000000000000000000000000000008152600401612228906139ef565b60405180910390fd5b80600601549250505090565b6000600160003373ffffffffffffffffffffffffffffffffffffffff1673ffffffffffffffffffffffffffffffffffffffff16815260200190815260200160002060009054906101000a900460ff169050806122ce576040517f08c379a00000000000000000000000000000000000000000000000000000000081526004016122c59061348a565b60405180910390fd5b60008060003373ffffffffffffffffffffffffffffffffffffffff1673ffffffffffffffffffffffffffffffffffffffff1681526020019081526020016000209050600c54816000015410612358576040517f08c379a000000000000000000000000000000000000000000000000000000000815260040161234f90613a5b565b60405180910390fd5b600181600301600082825461236d91906133e8565b92505081905550600c5481600001819055505050565b600760009054906101000a900473ffffffffffffffffffffffffffffffffffffffff1673ffffffffffffffffffffffffffffffffffffffff163373ffffffffffffffffffffffffffffffffffffffff1614612413576040517f08c379a000000000000000000000000000000000000000000000000000000000815260040161240a90613097565b60405180910390fd5b6000600160008373ffffffffffffffffffffffffffffffffffffffff1673ffffffffffffffffffffffffffffffffffffffff16815260200190815260200160002060009054906101000a900460ff16905060001515811515146124ab576040517f08c379a00000000000000000000000000000000000000000000000000000000081526004016124a290613ac7565b60405180910390fd5b60008060008473ffffffffffffffffffffffffffffffffffffffff1673ffffffffffffffffffffffffffffffffffffffff1681526020019081526020016000209050600b54816000018190555060008160020181905550600081600101819055506000816003018190555060018060008573ffffffffffffffffffffffffffffffffffffffff1673ffffffffffffffffffffffffffffffffffffffff16815260200190815260200160002060006101000a81548160ff0219169083151502179055506008600081548092919061258090612f7d565b9190505550505050565b82805461259690612ff4565b90600052602060002090601f0160209004810192826125b857600085556125ff565b82601f106125d157805160ff19168380011785556125ff565b828001600101855582156125ff579182015b828111156125fe5782518255916020019190600101906125e3565b5b50905061260c9190612740565b5090565b828054828255906000526020600020908101928215612689579160200282015b828111156126885782518260006101000a81548173ffffffffffffffffffffffffffffffffffffffff021916908373ffffffffffffffffffffffffffffffffffffffff16021790555091602001919060010190612630565b5b5090506126969190612740565b5090565b82805482825590600052602060002090601f0160209004810192821561272f5791602002820160005b8382111561270057835183826101000a81548160ff02191690831515021790555092602001926001016020816000010492830192600103026126c3565b801561272d5782816101000a81549060ff0219169055600101602081600001049283019260010302612700565b505b50905061273c9190612740565b5090565b5b80821115612759576000816000905550600101612741565b5090565b6000604051905090565b600080fd5b600080fd5b600080fd5b600080fd5b6000601f19601f8301169050919050565b7f4e487b7100000000000000000000000000000000000000000000000000000000600052604160045260246000fd5b6127c48261277b565b810181811067ffffffffffffffff821117156127e3576127e261278c565b5b80604052505050565b60006127f661275d565b905061280282826127bb565b919050565b600067ffffffffffffffff8211156128225761282161278c565b5b61282b8261277b565b9050602081019050919050565b82818337600083830152505050565b600061285a61285584612807565b6127ec565b90508281526020810184848401111561287657612875612776565b5b612881848285612838565b509392505050565b600082601f83011261289e5761289d612771565b5b81356128ae848260208601612847565b91505092915050565b6000602082840312156128cd576128cc612767565b5b600082013567ffffffffffffffff8111156128eb576128ea61276c565b5b6128f784828501612889565b91505092915050565b6000819050919050565b61291381612900565b82525050565b600060208201905061292e600083018461290a565b92915050565b61293d81612900565b811461294857600080fd5b50565b60008135905061295a81612934565b92915050565b60006020828403121561297657612975612767565b5b60006129848482850161294b565b91505092915050565b600073ffffffffffffffffffffffffffffffffffffffff82169050919050565b60006129b88261298d565b9050919050565b6129c8816129ad565b82525050565b600081519050919050565b600082825260208201905092915050565b60005b83811015612a085780820151818401526020810190506129ed565b83811115612a17576000848401525b50505050565b6000612a28826129ce565b612a3281856129d9565b9350612a428185602086016129ea565b612a4b8161277b565b840191505092915050565b600060e082019050612a6b600083018a6129bf565b612a78602083018961290a565b612a85604083018861290a565b8181036060830152612a978187612a1d565b9050612aa6608083018661290a565b612ab360a083018561290a565b81810360c0830152612ac58184612a1d565b905098975050505050505050565b612adc816129ad565b8114612ae757600080fd5b50565b600081359050612af981612ad3565b92915050565b600060208284031215612b1557612b14612767565b5b6000612b2384828501612aea565b91505092915050565b60008115159050919050565b612b4181612b2c565b82525050565b6000602082019050612b5c6000830184612b38565b92915050565b600061010082019050612b78600083018b61290a565b612b85602083018a61290a565b612b92604083018961290a565b612b9f606083018861290a565b612bac608083018761290a565b612bb960a083018661290a565b612bc660c083018561290a565b612bd360e083018461290a565b9998505050505050505050565b60006020820190508181036000830152612bfa8184612a1d565b905092915050565b6000604082019050612c17600083018561290a565b612c2460208301846129bf565b9392505050565b6000608082019050612c40600083018761290a565b612c4d602083018661290a565b612c5a604083018561290a565b612c67606083018461290a565b95945050505050565b6000602082019050612c8560008301846129bf565b92915050565b612c9481612b2c565b8114612c9f57600080fd5b50565b600081359050612cb181612c8b565b92915050565b600060208284031215612ccd57612ccc612767565b5b6000612cdb84828501612ca2565b91505092915050565b7f796f75206d757374206861766520746f20726567697374726174696f6e20666960008201527f7273740000000000000000000000000000000000000000000000000000000000602082015250565b6000612d406023836129d9565b9150612d4b82612ce4565b604082019050919050565b60006020820190508181036000830152612d6f81612d33565b9050919050565b7f4e487b7100000000000000000000000000000000000000000000000000000000600052601160045260246000fd5b6000612db082612900565b9150612dbb83612900565b925082821015612dce57612dcd612d76565b5b828203905092915050565b7f4e487b7100000000000000000000000000000000000000000000000000000000600052601260045260246000fd5b6000612e1382612900565b9150612e1e83612900565b925082612e2e57612e2d612dd9565b5b828204905092915050565b7f436f6d70616e7920706f6c69637920646f6573206e6f74207361746973667900600082015250565b6000612e6f601f836129d9565b9150612e7a82612e39565b602082019050919050565b60006020820190508181036000830152612e9e81612e62565b9050919050565b7f466972737420436c6561722044756520416d6f756e7400000000000000000000600082015250565b6000612edb6016836129d9565b9150612ee682612ea5565b602082019050919050565b60006020820190508181036000830152612f0a81612ece565b9050919050565b7f596f752061726520616c726561647920636c61696d6564000000000000000000600082015250565b6000612f476017836129d9565b9150612f5282612f11565b602082019050919050565b60006020820190508181036000830152612f7681612f3a565b9050919050565b6000612f8882612900565b91507fffffffffffffffffffffffffffffffffffffffffffffffffffffffffffffffff8203612fba57612fb9612d76565b5b600182019050919050565b7f4e487b7100000000000000000000000000000000000000000000000000000000600052602260045260246000fd5b6000600282049050600182168061300c57607f821691505b60208210810361301f5761301e612fc5565b5b50919050565b7f4f6e6c7920636f6d70616e792063616e2063616c6c20746869732066756e637460008201527f696f6e0000000000000000000000000000000000000000000000000000000000602082015250565b60006130816023836129d9565b915061308c82613025565b604082019050919050565b600060208201905081810360008301526130b081613074565b9050919050565b7f6865792074686973206964206973206e6f74206d696e65720000000000000000600082015250565b60006130ed6018836129d9565b91506130f8826130b7565b602082019050919050565b6000602082019050818103600083015261311c816130e0565b9050919050565b600061312e82612900565b91506000820361314157613140612d76565b5b600182039050919050565b7f796f7520617265206e6f74207265676973746572207965740000000000000000600082015250565b60006131826018836129d9565b915061318d8261314c565b602082019050919050565b600060208201905081810360008301526131b181613175565b9050919050565b7f6e6578742073756273657175656e74207061796d656e74206d7573742062652060008201527f646f6e652061667465722033206d696e206f66206c617374207061796d656e74602082015250565b60006132146040836129d9565b915061321f826131b8565b604082019050919050565b6000602082019050818103600083015261324381613207565b9050919050565b600061325582612900565b915061326083612900565b9250817fffffffffffffffffffffffffffffffffffffffffffffffffffffffffffffffff048311821515161561329957613298612d76565b5b828202905092915050565b7f68657920796f7520686176652064756520666972737420636865636b2064756560008201527f206d6f6e65790000000000000000000000000000000000000000000000000000602082015250565b60006133006026836129d9565b915061330b826132a4565b604082019050919050565b6000602082019050818103600083015261332f816132f3565b9050919050565b600081905092915050565b50565b6000613351600083613336565b915061335c82613341565b600082019050919050565b600061337282613344565b9150819050919050565b7f4661696c656420746f2073656e64206574686572000000000000000000000000600082015250565b60006133b26014836129d9565b91506133bd8261337c565b602082019050919050565b600060208201905081810360008301526133e1816133a5565b9050919050565b60006133f382612900565b91506133fe83612900565b9250827fffffffffffffffffffffffffffffffffffffffffffffffffffffffffffffffff0382111561343357613432612d76565b5b828201905092915050565b7f796f7520617265206e6f74206d696e6572000000000000000000000000000000600082015250565b60006134746011836129d9565b915061347f8261343e565b602082019050919050565b600060208201905081810360008301526134a381613467565b9050919050565b7f63616c6c20636865636b4465746169466f72417070726f76616c000000000000600082015250565b60006134e0601a836129d9565b91506134eb826134aa565b602082019050919050565b6000602082019050818103600083015261350f816134d3565b9050919050565b7f616c6c20617070726f7665730000000000000000000000000000000000000000600082015250565b600061354c600c836129d9565b915061355782613516565b602082019050919050565b6000602082019050818103600083015261357b8161353f565b9050919050565b7f5761697420666f7220617070726f76616c000000000000000000000000000000600082015250565b60006135b86011836129d9565b91506135c382613582565b602082019050919050565b600060208201905081810360008301526135e7816135ab565b9050919050565b7f737279206572726f720000000000000000000000000000000000000000000000600082015250565b60006136246009836129d9565b915061362f826135ee565b602082019050919050565b6000602082019050818103600083015261365381613617565b9050919050565b7f686579206f776e65722063616e206e6f74206265207573657200000000000000600082015250565b60006136906019836129d9565b915061369b8261365a565b602082019050919050565b600060208201905081810360008301526136bf81613683565b9050919050565b7f796f75206d7573742066756c6c66696c6c206d696e696d756d2063617465726960008201527f6100000000000000000000000000000000000000000000000000000000000000602082015250565b60006137226021836129d9565b915061372d826136c6565b604082019050919050565b6000602082019050818103600083015261375181613715565b9050919050565b7f796f752061726520616c72656479207265676973746572000000000000000000600082015250565b600061378e6017836129d9565b915061379982613758565b602082019050919050565b600060208201905081810360008301526137bd81613781565b9050919050565b7f4661696c656420746f2073656e6420457468657220416d6f756e740000000000600082015250565b60006137fa601b836129d9565b9150613805826137c4565b602082019050919050565b60006020820190508181036000830152613829816137ed565b9050919050565b7f796f7520617265206e6f7420616c726564792072656769737465722079657400600082015250565b6000613866601f836129d9565b915061387182613830565b602082019050919050565b6000602082019050818103600083015261389581613859565b9050919050565b7f636865636b20596f7572206c61737420417070726f76616c2073746174757300600082015250565b60006138d2601f836129d9565b91506138dd8261389c565b602082019050919050565b60006020820190508181036000830152613901816138c5565b9050919050565b7f4e487b7100000000000000000000000000000000000000000000000000000000600052603260045260246000fd5b7f796f7520617265206e6f742075736572206f66207468697320636f6d70616e79600082015250565b600061396d6020836129d9565b915061397882613937565b602082019050919050565b6000602082019050818103600083015261399c81613960565b9050919050565b7f796f7520617265206e6f7420636c61696d207965740000000000000000000000600082015250565b60006139d96015836129d9565b91506139e4826139a3565b602082019050919050565b60006020820190508181036000830152613a08816139cc565b9050919050565b7f4a75737420417070726f7665206e65787420636c61696d000000000000000000600082015250565b6000613a456017836129d9565b9150613a5082613a0f565b602082019050919050565b60006020820190508181036000830152613a7481613a38565b9050919050565b7f686579207468697320696420697320616c7265616479206d696e657200000000600082015250565b6000613ab1601c836129d9565b9150613abc82613a7b565b602082019050919050565b60006020820190508181036000830152613ae081613aa4565b905091905056fe73727920776520617265206e6f742073617469736679207769746820796f7572206465736372697074696f6ea2646970667358221220c9f5211b63cd4c7c63f0a9a8570a8ef6461e5c0e93d3c233fc1cfced6639fee564736f6c634300080d0033",
  "immutableReferences": {},
  "source": "// SPDX-License-Identifier: GPL-3.0\r\npragma solidity >=0.4.22 <0.9.0;\r\n\r\ncontract Insurance{\r\n    struct miners{\r\n        uint lastAproval;\r\n        uint totalPositive;\r\n        uint totalNegative;\r\n        uint dueAmount;\r\n    }\r\n    struct minerReward{\r\n        uint amount;\r\n        address miner;\r\n    }\r\n    mapping(address=>miners) public minerList;\r\n    mapping(address=>bool) public isminer;\r\n    mapping (uint=>minerReward) public minerPayment;\r\n    struct user {  \r\n        uint totalAmount;                \r\n        uint policy;   \r\n        uint lastTimePayment;    \r\n        uint registrationDate;\r\n        uint dueAmount;          \r\n        uint lastTimeClaim;\r\n        uint lastClaimNumber;\r\n        uint blockTimestamp;\r\n       \r\n    }\r\n    mapping(address=>user) public userList;  \r\n    mapping(address=>bool)public userList1;\r\n      \r\n          \r\n    struct claimUserDetail{ \r\n        address user;       \r\n        uint countminerP;\r\n        uint countminerN;         \r\n        string description;\r\n        address [] array;\r\n        bool []posNeg;\r\n        uint idx;\r\n        uint totalMin;\r\n        string res;    \r\n    }\r\n    mapping(uint=>claimUserDetail) public claimUsers;\r\n    mapping(address=>bool) public CheckBeforeStatus;\r\n    function userLastClaimNumber() public view returns(uint){\r\n        bool isUser=userList1[msg.sender];\r\n        require(isUser,\"you are not user of this company\");\r\n        user storage usrDetails=userList[msg.sender];\r\n        require(usrDetails.lastClaimNumber>0,\"you are not claim yet\");\r\n        return usrDetails.lastClaimNumber;\r\n    }\r\n    address public company;           \r\n    uint public totalMiner;            \r\n    uint public minimumCriteria;        \r\n    uint public minimumRequirnmentTime;  \r\n    uint public totalClaimUsers;        \r\n    uint public totalApproveUsers;      \r\n    uint public minerIndexApproved;\r\n    uint public MinerIndexNotApproved;\r\n    constructor(){             \r\n        company=msg.sender;            \r\n        minimumCriteria=5 wei;          \r\n        totalMiner=0;               \r\n        minimumRequirnmentTime=5;         \r\n        totalClaimUsers=0;             \r\n        totalApproveUsers=0;  \r\n        minerIndexApproved=0; \r\n        MinerIndexNotApproved=0;   \r\n        \r\n    }\r\n    modifier onlyCompany(){  \r\n        require(msg.sender==company,\"Only company can call this function\");\r\n        _;\r\n    }\r\n    function addUser() public payable{ \r\n        require(msg.sender!=company,\"hey owner can not be user\");\r\n        require(msg.value>=minimumCriteria,\"you must fullfill minimum cateria\");\r\n        bool  checkUsr=userList1[msg.sender];\r\n        require(checkUsr==false,\"you are alredy register\");\r\n        user storage newUser=userList[msg.sender]; \r\n        (bool sent, ) = company.call{value: msg.value}(\"\");\r\n        require(sent, \"Failed to send Ether Amount\");\r\n        newUser.policy=msg.value;\r\n        newUser.totalAmount=msg.value; \r\n        newUser.lastTimePayment=block.timestamp;\r\n        newUser.registrationDate=block.timestamp;\r\n        newUser.dueAmount=0;\r\n        newUser.lastTimeClaim=block.timestamp;\r\n        newUser.blockTimestamp=block.timestamp;\r\n        newUser.lastClaimNumber=0;\r\n        userList1[msg.sender]=true;\r\n    }\r\n    function subsequentPayment() public payable{\r\n        bool  checkUsr=userList1[msg.sender];\r\n        require(checkUsr,\"you are not register yet\");\r\n        user storage usr=userList[msg.sender]; \r\n        uint duetime=(block.timestamp-usr.lastTimePayment)/180;\r\n        require(duetime>=1,\"next subsequent payment must be done after 3 min of last payment\");\r\n        require(msg.value>=usr.policy*duetime,\"hey you have due first check due money\");\r\n        (bool send,)=company.call{value:msg.value}(\"\");\r\n        require(send,\"Failed to send ether\");\r\n        uint temp=msg.value/usr.policy;\r\n        usr.lastTimePayment+=(180*temp);\r\n    }\r\n    function get() public {\r\n        bool  checkUsr=userList1[msg.sender];\r\n        require(checkUsr,\"you are not alredy register yet\");\r\n        user storage usr=userList[msg.sender]; \r\n        usr.blockTimestamp= block.timestamp;\r\n    }\r\n    function dueAmountUser() public view returns(uint){\r\n        bool  checkUsr=userList1[msg.sender];\r\n        require(checkUsr,\"you are not alredy register yet\");\r\n        user storage usr=userList[msg.sender]; \r\n        uint duetime=(usr.blockTimestamp-usr.lastTimePayment)/180; \r\n        return duetime;\r\n    }\r\n    function getUserPolicy() public returns(uint){\r\n        bool  checkUsr=userList1[msg.sender];\r\n        require(checkUsr,\"you are not alredy register yet\");\r\n        user storage usr=userList[msg.sender];\r\n        uint v=usr.policy/1 ether;\r\n        return v;\r\n    }\r\n    function addMiner(address _miner) public onlyCompany { \r\n            bool check=isminer[_miner];\r\n            require(check==false,\"hey this id is already miner\");  \r\n            miners storage newminer=minerList[_miner];    \r\n            newminer.lastAproval=totalClaimUsers; \r\n            newminer.totalNegative=0;\r\n            newminer.totalPositive=0; \r\n            newminer.dueAmount=0;  \r\n            isminer[_miner]=true;\r\n            totalMiner++;                             \r\n    }\r\n    function removeMiner(address _miner) public onlyCompany{\r\n        bool check=isminer[_miner]; \r\n        require(check==true,\"hey this id is not miner\");\r\n        isminer[_miner]=false;\r\n        totalMiner--;                                                                                   \r\n    }\r\n    \r\n    function insuranceClaim(string memory _desc) public { \r\n       bool check=userList1[msg.sender];\r\n       require(check,\"you must have to registration first\");\r\n       user storage usrDetail=userList[msg.sender]; \r\n       uint minTime=(block.timestamp-usrDetail.lastTimeClaim)/180;\r\n       require(minTime>=2,\"Company policy does not satisfy\");\r\n       require((block.timestamp-usrDetail.lastTimePayment)/180==0,\"First Clear Due Amount\"); \r\n       bool checkInitail=CheckBeforeStatus[msg.sender];\r\n       require(checkInitail==false,\"You are already claimed\");\r\n        claimUserDetail storage newClaim=claimUsers[totalClaimUsers];\r\n        newClaim.user=msg.sender;\r\n        newClaim.countminerP=0;\r\n        newClaim.countminerN=0;\r\n        newClaim.description=_desc;\r\n        newClaim.array=new address[](totalMiner);\r\n        newClaim.posNeg=new bool[](totalMiner);\r\n        newClaim.idx=0;\r\n        newClaim.res=\"waiting\";\r\n        newClaim.totalMin=totalMiner;\r\n        totalClaimUsers++;\r\n        CheckBeforeStatus[msg.sender]=true; \r\n    }\r\n    \r\n    function minerLastApprovalStatus() public payable{\r\n        bool check=isminer[msg.sender];\r\n        require(check,\"you are not miner\");\r\n        miners storage mine=minerList[msg.sender];\r\n        require(mine.lastAproval<totalApproveUsers,\"Just Approve next claim\");\r\n            mine.dueAmount+=1;\r\n            mine.lastAproval=totalApproveUsers;\r\n        }\r\n\r\n    function minerCheckUserDetailForApproval()public view returns(string memory){\r\n        bool check=isminer[msg.sender];\r\n        require(check,\"you are not miner\");\r\n        miners storage mine=minerList[msg.sender];\r\n        require(mine.lastAproval>=totalApproveUsers,\"call checkDetaiForApproval\");\r\n        claimUserDetail storage usrDetails=claimUsers[mine.lastAproval];\r\n        return usrDetails.description;\r\n\r\n        }\r\n    function minerAprroval(bool c)public payable{\r\n        bool check=isminer[msg.sender];\r\n        require(check,\"you are not miner\");\r\n        miners storage mine=minerList[msg.sender];\r\n        require( mine.lastAproval>=totalApproveUsers,\"check Your last Approval status\");\r\n        claimUserDetail storage claimusr=claimUsers[mine.lastAproval];\r\n        mine.lastAproval++;\r\n        if(c){\r\n            claimusr.countminerP++;\r\n            claimusr.array[claimusr.idx]=msg.sender;\r\n            claimusr.posNeg[claimusr.idx]=true;\r\n            claimusr.idx++;\r\n        }\r\n        else{\r\n            claimusr.countminerN++;\r\n            claimusr.array[claimusr.idx]=msg.sender;\r\n            claimusr.posNeg[claimusr.idx]=false;\r\n            claimusr.idx++;\r\n        }\r\n    }\r\n\r\n    function claimPaymentApproval()public payable onlyCompany{\r\n        require(totalClaimUsers>totalApproveUsers,\"all approves\");\r\n        claimUserDetail storage u=claimUsers[totalApproveUsers];\r\n        user storage uD=userList[u.user]; \r\n        require(u.countminerP+u.countminerN>=u.totalMin/2,\"Wait for approval\");\r\n        if(u.countminerP >u.totalMin/2){\r\n            (bool b,)=u.user.call{value:msg.value}(\"\");\r\n            require(b,\"sry error\");\r\n            u.res=\"Approved check you balance\";\r\n            uD.lastTimeClaim=block.timestamp;\r\n            CheckBeforeStatus[u.user]=false;\r\n            totalApproveUsers++;\r\n        }\r\n        else {\r\n            uD.lastTimeClaim=block.timestamp;\r\n            u.res=\"sry we are not satisfy with your description\";\r\n            CheckBeforeStatus[u.user]=false;\r\n            totalApproveUsers++;\r\n        }\r\n    }\r\n\r\n}",
  "sourcePath": "C:\\Users\\RAHUL KUMAR\\Desktop\\Miner Project\\contracts\\Insurance.sol",
  "compiler": {
    "name": "solc",
    "version": "0.8.13+commit.abaa5c0e.Emscripten.clang"
  },
  "schemaVersion": "3.4.7",
  "updatedAt": "2022-04-25T08:39:19.101Z",
  "networkType": "ethereum",
  "devdoc": {
    "kind": "dev",
    "methods": {},
    "version": 1
  },
  "userdoc": {
    "kind": "user",
    "methods": {},
    "version": 1
  }
}